{
	"data": {
		"bytecode": {
			"linkReferences": {},
			"object": "6080604052348015600e575f80fd5b50335f806101000a81548173ffffffffffffffffffffffffffffffffffffffff021916908373ffffffffffffffffffffffffffffffffffffffff16021790555061107a8061005b5f395ff3fe608060405234801561000f575f80fd5b506004361061004a575f3560e01c8063431a1b971461004e57806347e1da2a146100815780638da5cb5b1461009d578063b61d27f6146100bb575b5f80fd5b61006860048036038101906100639190610681565b6100d7565b60405161007894939291906106c4565b60405180910390f35b61009b60048036038101906100969190610812565b610103565b005b6100a56102d6565b6040516100b291906108d1565b60405180910390f35b6100d560048036038101906100d09190610969565b6102f9565b005b6001602052805f5260405f205f91509050805f0154908060010154908060020154908060030154905084565b5f805b8787905081101561014557858582818110610124576101236109da565b5b90506020020135826101369190610a34565b91508080600101915050610106565b505f610150826103bd565b905083839050888890501461019a576040517f08c379a000000000000000000000000000000000000000000000000000000000815260040161019190610ae7565b60405180910390fd5b5f5b8888905081101561027b575f8088889050146101d1578787838181106101c5576101c46109da565b5b905060200201356101d3565b5f5b905061026d8a8a848181106101eb576101ea6109da565b5b90506020020160208101906102009190610681565b82888886818110610214576102136109da565b5b90506020028101906102269190610b11565b8080601f0160208091040260200160405190810160405280939291908181526020018383808284375f81840152601f19601f82011690508083019250505050505050610510565b50808060010191505061019c565b50801561028d5761028c33836105c0565b5b7f3ce15f7f3b6b9e05af51ba019c3c87ef1d49edca1262901ff24e9fbbd194f73488888487876040516102c4959493929190610da5565b60405180910390a15050505050505050565b5f8054906101000a900473ffffffffffffffffffffffffffffffffffffffff1681565b5f610303846103bd565b9050610353858585858080601f0160208091040260200160405190810160405280939291908181526020018383808284375f81840152601f19601f82011690508083019250505050505050610510565b80156103645761036333856105c0565b5b8473ffffffffffffffffffffffffffffffffffffffff167f8e084f4a28a6752a4c84a569571c55c88b5e8a28400d520311a3b501fc5e4c358585856040516103ae93929190610e28565b60405180910390a25050505050565b5f805f9054906101000a900473ffffffffffffffffffffffffffffffffffffffff1673ffffffffffffffffffffffffffffffffffffffff163373ffffffffffffffffffffffffffffffffffffffff1603610419575f905061050b565b5f60015f3373ffffffffffffffffffffffffffffffffffffffff1673ffffffffffffffffffffffffffffffffffffffff1681526020019081526020015f209050805f01544210158015610470575080600101544211155b6104af576040517f08c379a00000000000000000000000000000000000000000000000000000000081526004016104a690610ec8565b60405180910390fd5b80600201548382600301546104c49190610a34565b1115610505576040517f08c379a00000000000000000000000000000000000000000000000000000000081526004016104fc90610f56565b60405180910390fd5b60019150505b919050565b5f8373ffffffffffffffffffffffffffffffffffffffff1683836040516105379190610fc6565b5f6040518083038185875af1925050503d805f8114610571576040519150601f19603f3d011682016040523d82523d5f602084013e610576565b606091505b50509050806105ba576040517f08c379a00000000000000000000000000000000000000000000000000000000081526004016105b190611026565b60405180910390fd5b50505050565b5f60015f8473ffffffffffffffffffffffffffffffffffffffff1673ffffffffffffffffffffffffffffffffffffffff1681526020019081526020015f20905081816003015f8282546106139190610a34565b92505081905550505050565b5f80fd5b5f80fd5b5f73ffffffffffffffffffffffffffffffffffffffff82169050919050565b5f61065082610627565b9050919050565b61066081610646565b811461066a575f80fd5b50565b5f8135905061067b81610657565b92915050565b5f602082840312156106965761069561061f565b5b5f6106a38482850161066d565b91505092915050565b5f819050919050565b6106be816106ac565b82525050565b5f6080820190506106d75f8301876106b5565b6106e460208301866106b5565b6106f160408301856106b5565b6106fe60608301846106b5565b95945050505050565b5f80fd5b5f80fd5b5f80fd5b5f8083601f84011261072857610727610707565b5b8235905067ffffffffffffffff8111156107455761074461070b565b5b6020830191508360208202830111156107615761076061070f565b5b9250929050565b5f8083601f84011261077d5761077c610707565b5b8235905067ffffffffffffffff81111561079a5761079961070b565b5b6020830191508360208202830111156107b6576107b561070f565b5b9250929050565b5f8083601f8401126107d2576107d1610707565b5b8235905067ffffffffffffffff8111156107ef576107ee61070b565b5b60208301915083602082028301111561080b5761080a61070f565b5b9250929050565b5f805f805f806060878903121561082c5761082b61061f565b5b5f87013567ffffffffffffffff81111561084957610848610623565b5b61085589828a01610713565b9650965050602087013567ffffffffffffffff81111561087857610877610623565b5b61088489828a01610768565b9450945050604087013567ffffffffffffffff8111156108a7576108a6610623565b5b6108b389828a016107bd565b92509250509295509295509295565b6108cb81610646565b82525050565b5f6020820190506108e45f8301846108c2565b92915050565b6108f3816106ac565b81146108fd575f80fd5b50565b5f8135905061090e816108ea565b92915050565b5f8083601f84011261092957610928610707565b5b8235905067ffffffffffffffff8111156109465761094561070b565b5b6020830191508360018202830111156109625761096161070f565b5b9250929050565b5f805f80606085870312156109815761098061061f565b5b5f61098e8782880161066d565b945050602061099f87828801610900565b935050604085013567ffffffffffffffff8111156109c0576109bf610623565b5b6109cc87828801610914565b925092505092959194509250565b7f4e487b71000000000000000000000000000000000000000000000000000000005f52603260045260245ffd5b7f4e487b71000000000000000000000000000000000000000000000000000000005f52601160045260245ffd5b5f610a3e826106ac565b9150610a49836106ac565b9250828201905080821115610a6157610a60610a07565b5b92915050565b5f82825260208201905092915050565b7f5472616e73616374696f6e4d616e616765723a204172726179206c656e6774685f8201527f73206d757374206d617463680000000000000000000000000000000000000000602082015250565b5f610ad1602c83610a67565b9150610adc82610a77565b604082019050919050565b5f6020820190508181035f830152610afe81610ac5565b9050919050565b5f80fd5b5f80fd5b5f80fd5b5f8083356001602003843603038112610b2d57610b2c610b05565b5b80840192508235915067ffffffffffffffff821115610b4f57610b4e610b09565b5b602083019250600182023603831315610b6b57610b6a610b0d565b5b509250929050565b5f82825260208201905092915050565b5f819050919050565b610b9581610646565b82525050565b5f610ba68383610b8c565b60208301905092915050565b5f610bc0602084018461066d565b905092915050565b5f602082019050919050565b5f610bdf8385610b73565b9350610bea82610b83565b805f5b85811015610c2257610bff8284610bb2565b610c098882610b9b565b9750610c1483610bc8565b925050600181019050610bed565b5085925050509392505050565b5f82825260208201905092915050565b5f819050919050565b5f82825260208201905092915050565b828183375f83830152505050565b5f601f19601f8301169050919050565b5f610c818385610c48565b9350610c8e838584610c58565b610c9783610c66565b840190509392505050565b5f610cae848484610c76565b90509392505050565b5f80fd5b5f80fd5b5f80fd5b5f8083356001602003843603038112610cdf57610cde610cbf565b5b83810192508235915060208301925067ffffffffffffffff821115610d0757610d06610cb7565b5b600182023603831315610d1d57610d1c610cbb565b5b509250929050565b5f602082019050919050565b5f610d3c8385610c2f565b935083602084028501610d4e84610c3f565b805f5b87811015610d93578484038952610d688284610cc3565b610d73868284610ca2565b9550610d7e84610d25565b935060208b019a505050600181019050610d51565b50829750879450505050509392505050565b5f6060820190508181035f830152610dbe818789610bd4565b9050610dcd60208301866106b5565b8181036040830152610de0818486610d31565b90509695505050505050565b5f82825260208201905092915050565b5f610e078385610dec565b9350610e14838584610c58565b610e1d83610c66565b840190509392505050565b5f604082019050610e3b5f8301866106b5565b8181036020830152610e4e818486610dfc565b9050949350505050565b7f5472616e73616374696f6e4d616e616765723a2053657373696f6e206973206e5f8201527f6f74206163746976650000000000000000000000000000000000000000000000602082015250565b5f610eb2602983610a67565b9150610ebd82610e58565b604082019050919050565b5f6020820190508181035f830152610edf81610ea6565b9050919050565b7f5472616e73616374696f6e4d616e616765723a2053657373696f6e207370656e5f8201527f64696e67206c696d697420657863656564656400000000000000000000000000602082015250565b5f610f40603383610a67565b9150610f4b82610ee6565b604082019050919050565b5f6020820190508181035f830152610f6d81610f34565b9050919050565b5f81519050919050565b5f81905092915050565b8281835e5f83830152505050565b5f610fa082610f74565b610faa8185610f7e565b9350610fba818560208601610f88565b80840191505092915050565b5f610fd18284610f96565b915081905092915050565b7f5472616e73616374696f6e4d616e616765723a2043616c6c206661696c6564005f82015250565b5f611010601f83610a67565b915061101b82610fdc565b602082019050919050565b5f6020820190508181035f83015261103d81611004565b905091905056fea26469706673582212207aef2747ecf526d8eb69269674924ec081f304668e035b43097e83097d71f2f464736f6c63430008190033",
			"opcodes": "PUSH1 0x80 PUSH1 0x40 MSTORE CALLVALUE DUP1 ISZERO PUSH1 0xE JUMPI PUSH0 DUP1 REVERT JUMPDEST POP CALLER PUSH0 DUP1 PUSH2 0x100 EXP DUP2 SLOAD DUP2 PUSH20 0xFFFFFFFFFFFFFFFFFFFFFFFFFFFFFFFFFFFFFFFF MUL NOT AND SWAP1 DUP4 PUSH20 0xFFFFFFFFFFFFFFFFFFFFFFFFFFFFFFFFFFFFFFFF AND MUL OR SWAP1 SSTORE POP PUSH2 0x107A DUP1 PUSH2 0x5B PUSH0 CODECOPY PUSH0 RETURN INVALID PUSH1 0x80 PUSH1 0x40 MSTORE CALLVALUE DUP1 ISZERO PUSH2 0xF JUMPI PUSH0 DUP1 REVERT JUMPDEST POP PUSH1 0x4 CALLDATASIZE LT PUSH2 0x4A JUMPI PUSH0 CALLDATALOAD PUSH1 0xE0 SHR DUP1 PUSH4 0x431A1B97 EQ PUSH2 0x4E JUMPI DUP1 PUSH4 0x47E1DA2A EQ PUSH2 0x81 JUMPI DUP1 PUSH4 0x8DA5CB5B EQ PUSH2 0x9D JUMPI DUP1 PUSH4 0xB61D27F6 EQ PUSH2 0xBB JUMPI JUMPDEST PUSH0 DUP1 REVERT JUMPDEST PUSH2 0x68 PUSH1 0x4 DUP1 CALLDATASIZE SUB DUP2 ADD SWAP1 PUSH2 0x63 SWAP2 SWAP1 PUSH2 0x681 JUMP JUMPDEST PUSH2 0xD7 JUMP JUMPDEST PUSH1 0x40 MLOAD PUSH2 0x78 SWAP5 SWAP4 SWAP3 SWAP2 SWAP1 PUSH2 0x6C4 JUMP JUMPDEST PUSH1 0x40 MLOAD DUP1 SWAP2 SUB SWAP1 RETURN JUMPDEST PUSH2 0x9B PUSH1 0x4 DUP1 CALLDATASIZE SUB DUP2 ADD SWAP1 PUSH2 0x96 SWAP2 SWAP1 PUSH2 0x812 JUMP JUMPDEST PUSH2 0x103 JUMP JUMPDEST STOP JUMPDEST PUSH2 0xA5 PUSH2 0x2D6 JUMP JUMPDEST PUSH1 0x40 MLOAD PUSH2 0xB2 SWAP2 SWAP1 PUSH2 0x8D1 JUMP JUMPDEST PUSH1 0x40 MLOAD DUP1 SWAP2 SUB SWAP1 RETURN JUMPDEST PUSH2 0xD5 PUSH1 0x4 DUP1 CALLDATASIZE SUB DUP2 ADD SWAP1 PUSH2 0xD0 SWAP2 SWAP1 PUSH2 0x969 JUMP JUMPDEST PUSH2 0x2F9 JUMP JUMPDEST STOP JUMPDEST PUSH1 0x1 PUSH1 0x20 MSTORE DUP1 PUSH0 MSTORE PUSH1 0x40 PUSH0 KECCAK256 PUSH0 SWAP2 POP SWAP1 POP DUP1 PUSH0 ADD SLOAD SWAP1 DUP1 PUSH1 0x1 ADD SLOAD SWAP1 DUP1 PUSH1 0x2 ADD SLOAD SWAP1 DUP1 PUSH1 0x3 ADD SLOAD SWAP1 POP DUP5 JUMP JUMPDEST PUSH0 DUP1 JUMPDEST DUP8 DUP8 SWAP1 POP DUP2 LT ISZERO PUSH2 0x145 JUMPI DUP6 DUP6 DUP3 DUP2 DUP2 LT PUSH2 0x124 JUMPI PUSH2 0x123 PUSH2 0x9DA JUMP JUMPDEST JUMPDEST SWAP1 POP PUSH1 0x20 MUL ADD CALLDATALOAD DUP3 PUSH2 0x136 SWAP2 SWAP1 PUSH2 0xA34 JUMP JUMPDEST SWAP2 POP DUP1 DUP1 PUSH1 0x1 ADD SWAP2 POP POP PUSH2 0x106 JUMP JUMPDEST POP PUSH0 PUSH2 0x150 DUP3 PUSH2 0x3BD JUMP JUMPDEST SWAP1 POP DUP4 DUP4 SWAP1 POP DUP9 DUP9 SWAP1 POP EQ PUSH2 0x19A JUMPI PUSH1 0x40 MLOAD PUSH32 0x8C379A000000000000000000000000000000000000000000000000000000000 DUP2 MSTORE PUSH1 0x4 ADD PUSH2 0x191 SWAP1 PUSH2 0xAE7 JUMP JUMPDEST PUSH1 0x40 MLOAD DUP1 SWAP2 SUB SWAP1 REVERT JUMPDEST PUSH0 JUMPDEST DUP9 DUP9 SWAP1 POP DUP2 LT ISZERO PUSH2 0x27B JUMPI PUSH0 DUP1 DUP9 DUP9 SWAP1 POP EQ PUSH2 0x1D1 JUMPI DUP8 DUP8 DUP4 DUP2 DUP2 LT PUSH2 0x1C5 JUMPI PUSH2 0x1C4 PUSH2 0x9DA JUMP JUMPDEST JUMPDEST SWAP1 POP PUSH1 0x20 MUL ADD CALLDATALOAD PUSH2 0x1D3 JUMP JUMPDEST PUSH0 JUMPDEST SWAP1 POP PUSH2 0x26D DUP11 DUP11 DUP5 DUP2 DUP2 LT PUSH2 0x1EB JUMPI PUSH2 0x1EA PUSH2 0x9DA JUMP JUMPDEST JUMPDEST SWAP1 POP PUSH1 0x20 MUL ADD PUSH1 0x20 DUP2 ADD SWAP1 PUSH2 0x200 SWAP2 SWAP1 PUSH2 0x681 JUMP JUMPDEST DUP3 DUP9 DUP9 DUP7 DUP2 DUP2 LT PUSH2 0x214 JUMPI PUSH2 0x213 PUSH2 0x9DA JUMP JUMPDEST JUMPDEST SWAP1 POP PUSH1 0x20 MUL DUP2 ADD SWAP1 PUSH2 0x226 SWAP2 SWAP1 PUSH2 0xB11 JUMP JUMPDEST DUP1 DUP1 PUSH1 0x1F ADD PUSH1 0x20 DUP1 SWAP2 DIV MUL PUSH1 0x20 ADD PUSH1 0x40 MLOAD SWAP1 DUP2 ADD PUSH1 0x40 MSTORE DUP1 SWAP4 SWAP3 SWAP2 SWAP1 DUP2 DUP2 MSTORE PUSH1 0x20 ADD DUP4 DUP4 DUP1 DUP3 DUP5 CALLDATACOPY PUSH0 DUP2 DUP5 ADD MSTORE PUSH1 0x1F NOT PUSH1 0x1F DUP3 ADD AND SWAP1 POP DUP1 DUP4 ADD SWAP3 POP POP POP POP POP POP POP PUSH2 0x510 JUMP JUMPDEST POP DUP1 DUP1 PUSH1 0x1 ADD SWAP2 POP POP PUSH2 0x19C JUMP JUMPDEST POP DUP1 ISZERO PUSH2 0x28D JUMPI PUSH2 0x28C CALLER DUP4 PUSH2 0x5C0 JUMP JUMPDEST JUMPDEST PUSH32 0x3CE15F7F3B6B9E05AF51BA019C3C87EF1D49EDCA1262901FF24E9FBBD194F734 DUP9 DUP9 DUP5 DUP8 DUP8 PUSH1 0x40 MLOAD PUSH2 0x2C4 SWAP6 SWAP5 SWAP4 SWAP3 SWAP2 SWAP1 PUSH2 0xDA5 JUMP JUMPDEST PUSH1 0x40 MLOAD DUP1 SWAP2 SUB SWAP1 LOG1 POP POP POP POP POP POP POP POP JUMP JUMPDEST PUSH0 DUP1 SLOAD SWAP1 PUSH2 0x100 EXP SWAP1 DIV PUSH20 0xFFFFFFFFFFFFFFFFFFFFFFFFFFFFFFFFFFFFFFFF AND DUP2 JUMP JUMPDEST PUSH0 PUSH2 0x303 DUP5 PUSH2 0x3BD JUMP JUMPDEST SWAP1 POP PUSH2 0x353 DUP6 DUP6 DUP6 DUP6 DUP1 DUP1 PUSH1 0x1F ADD PUSH1 0x20 DUP1 SWAP2 DIV MUL PUSH1 0x20 ADD PUSH1 0x40 MLOAD SWAP1 DUP2 ADD PUSH1 0x40 MSTORE DUP1 SWAP4 SWAP3 SWAP2 SWAP1 DUP2 DUP2 MSTORE PUSH1 0x20 ADD DUP4 DUP4 DUP1 DUP3 DUP5 CALLDATACOPY PUSH0 DUP2 DUP5 ADD MSTORE PUSH1 0x1F NOT PUSH1 0x1F DUP3 ADD AND SWAP1 POP DUP1 DUP4 ADD SWAP3 POP POP POP POP POP POP POP PUSH2 0x510 JUMP JUMPDEST DUP1 ISZERO PUSH2 0x364 JUMPI PUSH2 0x363 CALLER DUP6 PUSH2 0x5C0 JUMP JUMPDEST JUMPDEST DUP5 PUSH20 0xFFFFFFFFFFFFFFFFFFFFFFFFFFFFFFFFFFFFFFFF AND PUSH32 0x8E084F4A28A6752A4C84A569571C55C88B5E8A28400D520311A3B501FC5E4C35 DUP6 DUP6 DUP6 PUSH1 0x40 MLOAD PUSH2 0x3AE SWAP4 SWAP3 SWAP2 SWAP1 PUSH2 0xE28 JUMP JUMPDEST PUSH1 0x40 MLOAD DUP1 SWAP2 SUB SWAP1 LOG2 POP POP POP POP POP JUMP JUMPDEST PUSH0 DUP1 PUSH0 SWAP1 SLOAD SWAP1 PUSH2 0x100 EXP SWAP1 DIV PUSH20 0xFFFFFFFFFFFFFFFFFFFFFFFFFFFFFFFFFFFFFFFF AND PUSH20 0xFFFFFFFFFFFFFFFFFFFFFFFFFFFFFFFFFFFFFFFF AND CALLER PUSH20 0xFFFFFFFFFFFFFFFFFFFFFFFFFFFFFFFFFFFFFFFF AND SUB PUSH2 0x419 JUMPI PUSH0 SWAP1 POP PUSH2 0x50B JUMP JUMPDEST PUSH0 PUSH1 0x1 PUSH0 CALLER PUSH20 0xFFFFFFFFFFFFFFFFFFFFFFFFFFFFFFFFFFFFFFFF AND PUSH20 0xFFFFFFFFFFFFFFFFFFFFFFFFFFFFFFFFFFFFFFFF AND DUP2 MSTORE PUSH1 0x20 ADD SWAP1 DUP2 MSTORE PUSH1 0x20 ADD PUSH0 KECCAK256 SWAP1 POP DUP1 PUSH0 ADD SLOAD TIMESTAMP LT ISZERO DUP1 ISZERO PUSH2 0x470 JUMPI POP DUP1 PUSH1 0x1 ADD SLOAD TIMESTAMP GT ISZERO JUMPDEST PUSH2 0x4AF JUMPI PUSH1 0x40 MLOAD PUSH32 0x8C379A000000000000000000000000000000000000000000000000000000000 DUP2 MSTORE PUSH1 0x4 ADD PUSH2 0x4A6 SWAP1 PUSH2 0xEC8 JUMP JUMPDEST PUSH1 0x40 MLOAD DUP1 SWAP2 SUB SWAP1 REVERT JUMPDEST DUP1 PUSH1 0x2 ADD SLOAD DUP4 DUP3 PUSH1 0x3 ADD SLOAD PUSH2 0x4C4 SWAP2 SWAP1 PUSH2 0xA34 JUMP JUMPDEST GT ISZERO PUSH2 0x505 JUMPI PUSH1 0x40 MLOAD PUSH32 0x8C379A000000000000000000000000000000000000000000000000000000000 DUP2 MSTORE PUSH1 0x4 ADD PUSH2 0x4FC SWAP1 PUSH2 0xF56 JUMP JUMPDEST PUSH1 0x40 MLOAD DUP1 SWAP2 SUB SWAP1 REVERT JUMPDEST PUSH1 0x1 SWAP2 POP POP JUMPDEST SWAP2 SWAP1 POP JUMP JUMPDEST PUSH0 DUP4 PUSH20 0xFFFFFFFFFFFFFFFFFFFFFFFFFFFFFFFFFFFFFFFF AND DUP4 DUP4 PUSH1 0x40 MLOAD PUSH2 0x537 SWAP2 SWAP1 PUSH2 0xFC6 JUMP JUMPDEST PUSH0 PUSH1 0x40 MLOAD DUP1 DUP4 SUB DUP2 DUP6 DUP8 GAS CALL SWAP3 POP POP POP RETURNDATASIZE DUP1 PUSH0 DUP2 EQ PUSH2 0x571 JUMPI PUSH1 0x40 MLOAD SWAP2 POP PUSH1 0x1F NOT PUSH1 0x3F RETURNDATASIZE ADD AND DUP3 ADD PUSH1 0x40 MSTORE RETURNDATASIZE DUP3 MSTORE RETURNDATASIZE PUSH0 PUSH1 0x20 DUP5 ADD RETURNDATACOPY PUSH2 0x576 JUMP JUMPDEST PUSH1 0x60 SWAP2 POP JUMPDEST POP POP SWAP1 POP DUP1 PUSH2 0x5BA JUMPI PUSH1 0x40 MLOAD PUSH32 0x8C379A000000000000000000000000000000000000000000000000000000000 DUP2 MSTORE PUSH1 0x4 ADD PUSH2 0x5B1 SWAP1 PUSH2 0x1026 JUMP JUMPDEST PUSH1 0x40 MLOAD DUP1 SWAP2 SUB SWAP1 REVERT JUMPDEST POP POP POP POP JUMP JUMPDEST PUSH0 PUSH1 0x1 PUSH0 DUP5 PUSH20 0xFFFFFFFFFFFFFFFFFFFFFFFFFFFFFFFFFFFFFFFF AND PUSH20 0xFFFFFFFFFFFFFFFFFFFFFFFFFFFFFFFFFFFFFFFF AND DUP2 MSTORE PUSH1 0x20 ADD SWAP1 DUP2 MSTORE PUSH1 0x20 ADD PUSH0 KECCAK256 SWAP1 POP DUP2 DUP2 PUSH1 0x3 ADD PUSH0 DUP3 DUP3 SLOAD PUSH2 0x613 SWAP2 SWAP1 PUSH2 0xA34 JUMP JUMPDEST SWAP3 POP POP DUP2 SWAP1 SSTORE POP POP POP POP JUMP JUMPDEST PUSH0 DUP1 REVERT JUMPDEST PUSH0 DUP1 REVERT JUMPDEST PUSH0 PUSH20 0xFFFFFFFFFFFFFFFFFFFFFFFFFFFFFFFFFFFFFFFF DUP3 AND SWAP1 POP SWAP2 SWAP1 POP JUMP JUMPDEST PUSH0 PUSH2 0x650 DUP3 PUSH2 0x627 JUMP JUMPDEST SWAP1 POP SWAP2 SWAP1 POP JUMP JUMPDEST PUSH2 0x660 DUP2 PUSH2 0x646 JUMP JUMPDEST DUP2 EQ PUSH2 0x66A JUMPI PUSH0 DUP1 REVERT JUMPDEST POP JUMP JUMPDEST PUSH0 DUP2 CALLDATALOAD SWAP1 POP PUSH2 0x67B DUP2 PUSH2 0x657 JUMP JUMPDEST SWAP3 SWAP2 POP POP JUMP JUMPDEST PUSH0 PUSH1 0x20 DUP3 DUP5 SUB SLT ISZERO PUSH2 0x696 JUMPI PUSH2 0x695 PUSH2 0x61F JUMP JUMPDEST JUMPDEST PUSH0 PUSH2 0x6A3 DUP5 DUP3 DUP6 ADD PUSH2 0x66D JUMP JUMPDEST SWAP2 POP POP SWAP3 SWAP2 POP POP JUMP JUMPDEST PUSH0 DUP2 SWAP1 POP SWAP2 SWAP1 POP JUMP JUMPDEST PUSH2 0x6BE DUP2 PUSH2 0x6AC JUMP JUMPDEST DUP3 MSTORE POP POP JUMP JUMPDEST PUSH0 PUSH1 0x80 DUP3 ADD SWAP1 POP PUSH2 0x6D7 PUSH0 DUP4 ADD DUP8 PUSH2 0x6B5 JUMP JUMPDEST PUSH2 0x6E4 PUSH1 0x20 DUP4 ADD DUP7 PUSH2 0x6B5 JUMP JUMPDEST PUSH2 0x6F1 PUSH1 0x40 DUP4 ADD DUP6 PUSH2 0x6B5 JUMP JUMPDEST PUSH2 0x6FE PUSH1 0x60 DUP4 ADD DUP5 PUSH2 0x6B5 JUMP JUMPDEST SWAP6 SWAP5 POP POP POP POP POP JUMP JUMPDEST PUSH0 DUP1 REVERT JUMPDEST PUSH0 DUP1 REVERT JUMPDEST PUSH0 DUP1 REVERT JUMPDEST PUSH0 DUP1 DUP4 PUSH1 0x1F DUP5 ADD SLT PUSH2 0x728 JUMPI PUSH2 0x727 PUSH2 0x707 JUMP JUMPDEST JUMPDEST DUP3 CALLDATALOAD SWAP1 POP PUSH8 0xFFFFFFFFFFFFFFFF DUP2 GT ISZERO PUSH2 0x745 JUMPI PUSH2 0x744 PUSH2 0x70B JUMP JUMPDEST JUMPDEST PUSH1 0x20 DUP4 ADD SWAP2 POP DUP4 PUSH1 0x20 DUP3 MUL DUP4 ADD GT ISZERO PUSH2 0x761 JUMPI PUSH2 0x760 PUSH2 0x70F JUMP JUMPDEST JUMPDEST SWAP3 POP SWAP3 SWAP1 POP JUMP JUMPDEST PUSH0 DUP1 DUP4 PUSH1 0x1F DUP5 ADD SLT PUSH2 0x77D JUMPI PUSH2 0x77C PUSH2 0x707 JUMP JUMPDEST JUMPDEST DUP3 CALLDATALOAD SWAP1 POP PUSH8 0xFFFFFFFFFFFFFFFF DUP2 GT ISZERO PUSH2 0x79A JUMPI PUSH2 0x799 PUSH2 0x70B JUMP JUMPDEST JUMPDEST PUSH1 0x20 DUP4 ADD SWAP2 POP DUP4 PUSH1 0x20 DUP3 MUL DUP4 ADD GT ISZERO PUSH2 0x7B6 JUMPI PUSH2 0x7B5 PUSH2 0x70F JUMP JUMPDEST JUMPDEST SWAP3 POP SWAP3 SWAP1 POP JUMP JUMPDEST PUSH0 DUP1 DUP4 PUSH1 0x1F DUP5 ADD SLT PUSH2 0x7D2 JUMPI PUSH2 0x7D1 PUSH2 0x707 JUMP JUMPDEST JUMPDEST DUP3 CALLDATALOAD SWAP1 POP PUSH8 0xFFFFFFFFFFFFFFFF DUP2 GT ISZERO PUSH2 0x7EF JUMPI PUSH2 0x7EE PUSH2 0x70B JUMP JUMPDEST JUMPDEST PUSH1 0x20 DUP4 ADD SWAP2 POP DUP4 PUSH1 0x20 DUP3 MUL DUP4 ADD GT ISZERO PUSH2 0x80B JUMPI PUSH2 0x80A PUSH2 0x70F JUMP JUMPDEST JUMPDEST SWAP3 POP SWAP3 SWAP1 POP JUMP JUMPDEST PUSH0 DUP1 PUSH0 DUP1 PUSH0 DUP1 PUSH1 0x60 DUP8 DUP10 SUB SLT ISZERO PUSH2 0x82C JUMPI PUSH2 0x82B PUSH2 0x61F JUMP JUMPDEST JUMPDEST PUSH0 DUP8 ADD CALLDATALOAD PUSH8 0xFFFFFFFFFFFFFFFF DUP2 GT ISZERO PUSH2 0x849 JUMPI PUSH2 0x848 PUSH2 0x623 JUMP JUMPDEST JUMPDEST PUSH2 0x855 DUP10 DUP3 DUP11 ADD PUSH2 0x713 JUMP JUMPDEST SWAP7 POP SWAP7 POP POP PUSH1 0x20 DUP8 ADD CALLDATALOAD PUSH8 0xFFFFFFFFFFFFFFFF DUP2 GT ISZERO PUSH2 0x878 JUMPI PUSH2 0x877 PUSH2 0x623 JUMP JUMPDEST JUMPDEST PUSH2 0x884 DUP10 DUP3 DUP11 ADD PUSH2 0x768 JUMP JUMPDEST SWAP5 POP SWAP5 POP POP PUSH1 0x40 DUP8 ADD CALLDATALOAD PUSH8 0xFFFFFFFFFFFFFFFF DUP2 GT ISZERO PUSH2 0x8A7 JUMPI PUSH2 0x8A6 PUSH2 0x623 JUMP JUMPDEST JUMPDEST PUSH2 0x8B3 DUP10 DUP3 DUP11 ADD PUSH2 0x7BD JUMP JUMPDEST SWAP3 POP SWAP3 POP POP SWAP3 SWAP6 POP SWAP3 SWAP6 POP SWAP3 SWAP6 JUMP JUMPDEST PUSH2 0x8CB DUP2 PUSH2 0x646 JUMP JUMPDEST DUP3 MSTORE POP POP JUMP JUMPDEST PUSH0 PUSH1 0x20 DUP3 ADD SWAP1 POP PUSH2 0x8E4 PUSH0 DUP4 ADD DUP5 PUSH2 0x8C2 JUMP JUMPDEST SWAP3 SWAP2 POP POP JUMP JUMPDEST PUSH2 0x8F3 DUP2 PUSH2 0x6AC JUMP JUMPDEST DUP2 EQ PUSH2 0x8FD JUMPI PUSH0 DUP1 REVERT JUMPDEST POP JUMP JUMPDEST PUSH0 DUP2 CALLDATALOAD SWAP1 POP PUSH2 0x90E DUP2 PUSH2 0x8EA JUMP JUMPDEST SWAP3 SWAP2 POP POP JUMP JUMPDEST PUSH0 DUP1 DUP4 PUSH1 0x1F DUP5 ADD SLT PUSH2 0x929 JUMPI PUSH2 0x928 PUSH2 0x707 JUMP JUMPDEST JUMPDEST DUP3 CALLDATALOAD SWAP1 POP PUSH8 0xFFFFFFFFFFFFFFFF DUP2 GT ISZERO PUSH2 0x946 JUMPI PUSH2 0x945 PUSH2 0x70B JUMP JUMPDEST JUMPDEST PUSH1 0x20 DUP4 ADD SWAP2 POP DUP4 PUSH1 0x1 DUP3 MUL DUP4 ADD GT ISZERO PUSH2 0x962 JUMPI PUSH2 0x961 PUSH2 0x70F JUMP JUMPDEST JUMPDEST SWAP3 POP SWAP3 SWAP1 POP JUMP JUMPDEST PUSH0 DUP1 PUSH0 DUP1 PUSH1 0x60 DUP6 DUP8 SUB SLT ISZERO PUSH2 0x981 JUMPI PUSH2 0x980 PUSH2 0x61F JUMP JUMPDEST JUMPDEST PUSH0 PUSH2 0x98E DUP8 DUP3 DUP9 ADD PUSH2 0x66D JUMP JUMPDEST SWAP5 POP POP PUSH1 0x20 PUSH2 0x99F DUP8 DUP3 DUP9 ADD PUSH2 0x900 JUMP JUMPDEST SWAP4 POP POP PUSH1 0x40 DUP6 ADD CALLDATALOAD PUSH8 0xFFFFFFFFFFFFFFFF DUP2 GT ISZERO PUSH2 0x9C0 JUMPI PUSH2 0x9BF PUSH2 0x623 JUMP JUMPDEST JUMPDEST PUSH2 0x9CC DUP8 DUP3 DUP9 ADD PUSH2 0x914 JUMP JUMPDEST SWAP3 POP SWAP3 POP POP SWAP3 SWAP6 SWAP2 SWAP5 POP SWAP3 POP JUMP JUMPDEST PUSH32 0x4E487B7100000000000000000000000000000000000000000000000000000000 PUSH0 MSTORE PUSH1 0x32 PUSH1 0x4 MSTORE PUSH1 0x24 PUSH0 REVERT JUMPDEST PUSH32 0x4E487B7100000000000000000000000000000000000000000000000000000000 PUSH0 MSTORE PUSH1 0x11 PUSH1 0x4 MSTORE PUSH1 0x24 PUSH0 REVERT JUMPDEST PUSH0 PUSH2 0xA3E DUP3 PUSH2 0x6AC JUMP JUMPDEST SWAP2 POP PUSH2 0xA49 DUP4 PUSH2 0x6AC JUMP JUMPDEST SWAP3 POP DUP3 DUP3 ADD SWAP1 POP DUP1 DUP3 GT ISZERO PUSH2 0xA61 JUMPI PUSH2 0xA60 PUSH2 0xA07 JUMP JUMPDEST JUMPDEST SWAP3 SWAP2 POP POP JUMP JUMPDEST PUSH0 DUP3 DUP3 MSTORE PUSH1 0x20 DUP3 ADD SWAP1 POP SWAP3 SWAP2 POP POP JUMP JUMPDEST PUSH32 0x5472616E73616374696F6E4D616E616765723A204172726179206C656E677468 PUSH0 DUP3 ADD MSTORE PUSH32 0x73206D757374206D617463680000000000000000000000000000000000000000 PUSH1 0x20 DUP3 ADD MSTORE POP JUMP JUMPDEST PUSH0 PUSH2 0xAD1 PUSH1 0x2C DUP4 PUSH2 0xA67 JUMP JUMPDEST SWAP2 POP PUSH2 0xADC DUP3 PUSH2 0xA77 JUMP JUMPDEST PUSH1 0x40 DUP3 ADD SWAP1 POP SWAP2 SWAP1 POP JUMP JUMPDEST PUSH0 PUSH1 0x20 DUP3 ADD SWAP1 POP DUP2 DUP2 SUB PUSH0 DUP4 ADD MSTORE PUSH2 0xAFE DUP2 PUSH2 0xAC5 JUMP JUMPDEST SWAP1 POP SWAP2 SWAP1 POP JUMP JUMPDEST PUSH0 DUP1 REVERT JUMPDEST PUSH0 DUP1 REVERT JUMPDEST PUSH0 DUP1 REVERT JUMPDEST PUSH0 DUP1 DUP4 CALLDATALOAD PUSH1 0x1 PUSH1 0x20 SUB DUP5 CALLDATASIZE SUB SUB DUP2 SLT PUSH2 0xB2D JUMPI PUSH2 0xB2C PUSH2 0xB05 JUMP JUMPDEST JUMPDEST DUP1 DUP5 ADD SWAP3 POP DUP3 CALLDATALOAD SWAP2 POP PUSH8 0xFFFFFFFFFFFFFFFF DUP3 GT ISZERO PUSH2 0xB4F JUMPI PUSH2 0xB4E PUSH2 0xB09 JUMP JUMPDEST JUMPDEST PUSH1 0x20 DUP4 ADD SWAP3 POP PUSH1 0x1 DUP3 MUL CALLDATASIZE SUB DUP4 SGT ISZERO PUSH2 0xB6B JUMPI PUSH2 0xB6A PUSH2 0xB0D JUMP JUMPDEST JUMPDEST POP SWAP3 POP SWAP3 SWAP1 POP JUMP JUMPDEST PUSH0 DUP3 DUP3 MSTORE PUSH1 0x20 DUP3 ADD SWAP1 POP SWAP3 SWAP2 POP POP JUMP JUMPDEST PUSH0 DUP2 SWAP1 POP SWAP2 SWAP1 POP JUMP JUMPDEST PUSH2 0xB95 DUP2 PUSH2 0x646 JUMP JUMPDEST DUP3 MSTORE POP POP JUMP JUMPDEST PUSH0 PUSH2 0xBA6 DUP4 DUP4 PUSH2 0xB8C JUMP JUMPDEST PUSH1 0x20 DUP4 ADD SWAP1 POP SWAP3 SWAP2 POP POP JUMP JUMPDEST PUSH0 PUSH2 0xBC0 PUSH1 0x20 DUP5 ADD DUP5 PUSH2 0x66D JUMP JUMPDEST SWAP1 POP SWAP3 SWAP2 POP POP JUMP JUMPDEST PUSH0 PUSH1 0x20 DUP3 ADD SWAP1 POP SWAP2 SWAP1 POP JUMP JUMPDEST PUSH0 PUSH2 0xBDF DUP4 DUP6 PUSH2 0xB73 JUMP JUMPDEST SWAP4 POP PUSH2 0xBEA DUP3 PUSH2 0xB83 JUMP JUMPDEST DUP1 PUSH0 JUMPDEST DUP6 DUP2 LT ISZERO PUSH2 0xC22 JUMPI PUSH2 0xBFF DUP3 DUP5 PUSH2 0xBB2 JUMP JUMPDEST PUSH2 0xC09 DUP9 DUP3 PUSH2 0xB9B JUMP JUMPDEST SWAP8 POP PUSH2 0xC14 DUP4 PUSH2 0xBC8 JUMP JUMPDEST SWAP3 POP POP PUSH1 0x1 DUP2 ADD SWAP1 POP PUSH2 0xBED JUMP JUMPDEST POP DUP6 SWAP3 POP POP POP SWAP4 SWAP3 POP POP POP JUMP JUMPDEST PUSH0 DUP3 DUP3 MSTORE PUSH1 0x20 DUP3 ADD SWAP1 POP SWAP3 SWAP2 POP POP JUMP JUMPDEST PUSH0 DUP2 SWAP1 POP SWAP2 SWAP1 POP JUMP JUMPDEST PUSH0 DUP3 DUP3 MSTORE PUSH1 0x20 DUP3 ADD SWAP1 POP SWAP3 SWAP2 POP POP JUMP JUMPDEST DUP3 DUP2 DUP4 CALLDATACOPY PUSH0 DUP4 DUP4 ADD MSTORE POP POP POP JUMP JUMPDEST PUSH0 PUSH1 0x1F NOT PUSH1 0x1F DUP4 ADD AND SWAP1 POP SWAP2 SWAP1 POP JUMP JUMPDEST PUSH0 PUSH2 0xC81 DUP4 DUP6 PUSH2 0xC48 JUMP JUMPDEST SWAP4 POP PUSH2 0xC8E DUP4 DUP6 DUP5 PUSH2 0xC58 JUMP JUMPDEST PUSH2 0xC97 DUP4 PUSH2 0xC66 JUMP JUMPDEST DUP5 ADD SWAP1 POP SWAP4 SWAP3 POP POP POP JUMP JUMPDEST PUSH0 PUSH2 0xCAE DUP5 DUP5 DUP5 PUSH2 0xC76 JUMP JUMPDEST SWAP1 POP SWAP4 SWAP3 POP POP POP JUMP JUMPDEST PUSH0 DUP1 REVERT JUMPDEST PUSH0 DUP1 REVERT JUMPDEST PUSH0 DUP1 REVERT JUMPDEST PUSH0 DUP1 DUP4 CALLDATALOAD PUSH1 0x1 PUSH1 0x20 SUB DUP5 CALLDATASIZE SUB SUB DUP2 SLT PUSH2 0xCDF JUMPI PUSH2 0xCDE PUSH2 0xCBF JUMP JUMPDEST JUMPDEST DUP4 DUP2 ADD SWAP3 POP DUP3 CALLDATALOAD SWAP2 POP PUSH1 0x20 DUP4 ADD SWAP3 POP PUSH8 0xFFFFFFFFFFFFFFFF DUP3 GT ISZERO PUSH2 0xD07 JUMPI PUSH2 0xD06 PUSH2 0xCB7 JUMP JUMPDEST JUMPDEST PUSH1 0x1 DUP3 MUL CALLDATASIZE SUB DUP4 SGT ISZERO PUSH2 0xD1D JUMPI PUSH2 0xD1C PUSH2 0xCBB JUMP JUMPDEST JUMPDEST POP SWAP3 POP SWAP3 SWAP1 POP JUMP JUMPDEST PUSH0 PUSH1 0x20 DUP3 ADD SWAP1 POP SWAP2 SWAP1 POP JUMP JUMPDEST PUSH0 PUSH2 0xD3C DUP4 DUP6 PUSH2 0xC2F JUMP JUMPDEST SWAP4 POP DUP4 PUSH1 0x20 DUP5 MUL DUP6 ADD PUSH2 0xD4E DUP5 PUSH2 0xC3F JUMP JUMPDEST DUP1 PUSH0 JUMPDEST DUP8 DUP2 LT ISZERO PUSH2 0xD93 JUMPI DUP5 DUP5 SUB DUP10 MSTORE PUSH2 0xD68 DUP3 DUP5 PUSH2 0xCC3 JUMP JUMPDEST PUSH2 0xD73 DUP7 DUP3 DUP5 PUSH2 0xCA2 JUMP JUMPDEST SWAP6 POP PUSH2 0xD7E DUP5 PUSH2 0xD25 JUMP JUMPDEST SWAP4 POP PUSH1 0x20 DUP12 ADD SWAP11 POP POP POP PUSH1 0x1 DUP2 ADD SWAP1 POP PUSH2 0xD51 JUMP JUMPDEST POP DUP3 SWAP8 POP DUP8 SWAP5 POP POP POP POP POP SWAP4 SWAP3 POP POP POP JUMP JUMPDEST PUSH0 PUSH1 0x60 DUP3 ADD SWAP1 POP DUP2 DUP2 SUB PUSH0 DUP4 ADD MSTORE PUSH2 0xDBE DUP2 DUP8 DUP10 PUSH2 0xBD4 JUMP JUMPDEST SWAP1 POP PUSH2 0xDCD PUSH1 0x20 DUP4 ADD DUP7 PUSH2 0x6B5 JUMP JUMPDEST DUP2 DUP2 SUB PUSH1 0x40 DUP4 ADD MSTORE PUSH2 0xDE0 DUP2 DUP5 DUP7 PUSH2 0xD31 JUMP JUMPDEST SWAP1 POP SWAP7 SWAP6 POP POP POP POP POP POP JUMP JUMPDEST PUSH0 DUP3 DUP3 MSTORE PUSH1 0x20 DUP3 ADD SWAP1 POP SWAP3 SWAP2 POP POP JUMP JUMPDEST PUSH0 PUSH2 0xE07 DUP4 DUP6 PUSH2 0xDEC JUMP JUMPDEST SWAP4 POP PUSH2 0xE14 DUP4 DUP6 DUP5 PUSH2 0xC58 JUMP JUMPDEST PUSH2 0xE1D DUP4 PUSH2 0xC66 JUMP JUMPDEST DUP5 ADD SWAP1 POP SWAP4 SWAP3 POP POP POP JUMP JUMPDEST PUSH0 PUSH1 0x40 DUP3 ADD SWAP1 POP PUSH2 0xE3B PUSH0 DUP4 ADD DUP7 PUSH2 0x6B5 JUMP JUMPDEST DUP2 DUP2 SUB PUSH1 0x20 DUP4 ADD MSTORE PUSH2 0xE4E DUP2 DUP5 DUP7 PUSH2 0xDFC JUMP JUMPDEST SWAP1 POP SWAP5 SWAP4 POP POP POP POP JUMP JUMPDEST PUSH32 0x5472616E73616374696F6E4D616E616765723A2053657373696F6E206973206E PUSH0 DUP3 ADD MSTORE PUSH32 0x6F74206163746976650000000000000000000000000000000000000000000000 PUSH1 0x20 DUP3 ADD MSTORE POP JUMP JUMPDEST PUSH0 PUSH2 0xEB2 PUSH1 0x29 DUP4 PUSH2 0xA67 JUMP JUMPDEST SWAP2 POP PUSH2 0xEBD DUP3 PUSH2 0xE58 JUMP JUMPDEST PUSH1 0x40 DUP3 ADD SWAP1 POP SWAP2 SWAP1 POP JUMP JUMPDEST PUSH0 PUSH1 0x20 DUP3 ADD SWAP1 POP DUP2 DUP2 SUB PUSH0 DUP4 ADD MSTORE PUSH2 0xEDF DUP2 PUSH2 0xEA6 JUMP JUMPDEST SWAP1 POP SWAP2 SWAP1 POP JUMP JUMPDEST PUSH32 0x5472616E73616374696F6E4D616E616765723A2053657373696F6E207370656E PUSH0 DUP3 ADD MSTORE PUSH32 0x64696E67206C696D697420657863656564656400000000000000000000000000 PUSH1 0x20 DUP3 ADD MSTORE POP JUMP JUMPDEST PUSH0 PUSH2 0xF40 PUSH1 0x33 DUP4 PUSH2 0xA67 JUMP JUMPDEST SWAP2 POP PUSH2 0xF4B DUP3 PUSH2 0xEE6 JUMP JUMPDEST PUSH1 0x40 DUP3 ADD SWAP1 POP SWAP2 SWAP1 POP JUMP JUMPDEST PUSH0 PUSH1 0x20 DUP3 ADD SWAP1 POP DUP2 DUP2 SUB PUSH0 DUP4 ADD MSTORE PUSH2 0xF6D DUP2 PUSH2 0xF34 JUMP JUMPDEST SWAP1 POP SWAP2 SWAP1 POP JUMP JUMPDEST PUSH0 DUP2 MLOAD SWAP1 POP SWAP2 SWAP1 POP JUMP JUMPDEST PUSH0 DUP2 SWAP1 POP SWAP3 SWAP2 POP POP JUMP JUMPDEST DUP3 DUP2 DUP4 MCOPY PUSH0 DUP4 DUP4 ADD MSTORE POP POP POP JUMP JUMPDEST PUSH0 PUSH2 0xFA0 DUP3 PUSH2 0xF74 JUMP JUMPDEST PUSH2 0xFAA DUP2 DUP6 PUSH2 0xF7E JUMP JUMPDEST SWAP4 POP PUSH2 0xFBA DUP2 DUP6 PUSH1 0x20 DUP7 ADD PUSH2 0xF88 JUMP JUMPDEST DUP1 DUP5 ADD SWAP2 POP POP SWAP3 SWAP2 POP POP JUMP JUMPDEST PUSH0 PUSH2 0xFD1 DUP3 DUP5 PUSH2 0xF96 JUMP JUMPDEST SWAP2 POP DUP2 SWAP1 POP SWAP3 SWAP2 POP POP JUMP JUMPDEST PUSH32 0x5472616E73616374696F6E4D616E616765723A2043616C6C206661696C656400 PUSH0 DUP3 ADD MSTORE POP JUMP JUMPDEST PUSH0 PUSH2 0x1010 PUSH1 0x1F DUP4 PUSH2 0xA67 JUMP JUMPDEST SWAP2 POP PUSH2 0x101B DUP3 PUSH2 0xFDC JUMP JUMPDEST PUSH1 0x20 DUP3 ADD SWAP1 POP SWAP2 SWAP1 POP JUMP JUMPDEST PUSH0 PUSH1 0x20 DUP3 ADD SWAP1 POP DUP2 DUP2 SUB PUSH0 DUP4 ADD MSTORE PUSH2 0x103D DUP2 PUSH2 0x1004 JUMP JUMPDEST SWAP1 POP SWAP2 SWAP1 POP JUMP INVALID LOG2 PUSH5 0x6970667358 0x22 SLT KECCAK256 PUSH27 0xEF2747ECF526D8EB69269674924EC081F304668E035B43097E8309 PUSH30 0x71F2F464736F6C6343000819003300000000000000000000000000000000 "
		},
		"gasEstimates": {
			"creation": {
				"codeDepositCost": "843600",
				"executionCost": "25140",
				"totalCost": "868740"
			},
			"external": {
				"execute(address,uint256,bytes)": "infinite",
				"executeBatch(address[],uint256[],bytes[])": "infinite",
				"owner()": "2527",
				"sessions(address)": "infinite"
			},
			"internal": {
				"_call(address,uint256,bytes memory)": "infinite",
				"_increaseSpent(address,uint256)": "infinite",
				"_requireFromEntryPointOrOwnerOrSessionOwner(uint256)": "infinite"
			}
		},
		"methodIdentifiers": {
			"execute(address,uint256,bytes)": "b61d27f6",
			"executeBatch(address[],uint256[],bytes[])": "47e1da2a",
			"owner()": "8da5cb5b",
			"sessions(address)": "431a1b97"
		}
	},
	"abi": [
		{
			"inputs": [],
			"stateMutability": "nonpayable",
			"type": "constructor"
		},
		{
			"anonymous": false,
			"inputs": [
				{
					"indexed": false,
					"internalType": "address[]",
					"name": "target",
					"type": "address[]"
				},
				{
					"indexed": false,
					"internalType": "uint256",
					"name": "totalAmountSpent",
					"type": "uint256"
				},
				{
					"indexed": false,
					"internalType": "bytes[]",
					"name": "data",
					"type": "bytes[]"
				}
			],
			"name": "BatchInvoked",
			"type": "event"
		},
		{
			"anonymous": false,
			"inputs": [
				{
					"indexed": true,
					"internalType": "address",
					"name": "target",
					"type": "address"
				},
				{
					"indexed": false,
					"internalType": "uint256",
					"name": "value",
					"type": "uint256"
				},
				{
					"indexed": false,
					"internalType": "bytes",
					"name": "data",
					"type": "bytes"
				}
			],
			"name": "Invoked",
			"type": "event"
		},
		{
			"inputs": [
				{
					"internalType": "address",
					"name": "dest",
					"type": "address"
				},
				{
					"internalType": "uint256",
					"name": "value",
					"type": "uint256"
				},
				{
					"internalType": "bytes",
					"name": "func",
					"type": "bytes"
				}
			],
			"name": "execute",
			"outputs": [],
			"stateMutability": "nonpayable",
			"type": "function"
		},
		{
			"inputs": [
				{
					"internalType": "address[]",
					"name": "dest",
					"type": "address[]"
				},
				{
					"internalType": "uint256[]",
					"name": "value",
					"type": "uint256[]"
				},
				{
					"internalType": "bytes[]",
					"name": "func",
					"type": "bytes[]"
				}
			],
			"name": "executeBatch",
			"outputs": [],
			"stateMutability": "nonpayable",
			"type": "function"
		},
		{
			"inputs": [],
			"name": "owner",
			"outputs": [
				{
					"internalType": "address",
					"name": "",
					"type": "address"
				}
			],
			"stateMutability": "view",
			"type": "function"
		},
		{
			"inputs": [
				{
					"internalType": "address",
					"name": "",
					"type": "address"
				}
			],
			"name": "sessions",
			"outputs": [
				{
					"internalType": "uint256",
					"name": "startFrom",
					"type": "uint256"
				},
				{
					"internalType": "uint256",
					"name": "validUntil",
					"type": "uint256"
				},
				{
					"internalType": "uint256",
					"name": "totalAmount",
					"type": "uint256"
				},
				{
					"internalType": "uint256",
					"name": "spentAmount",
					"type": "uint256"
				}
			],
			"stateMutability": "view",
			"type": "function"
		}
	]
}